{
  "contractName": "RealEstate",
  "abi": [
    {
      "constant": true,
      "inputs": [
        {
          "name": "",
          "type": "uint256"
        }
      ],
      "name": "requests",
      "outputs": [
        {
          "name": "status",
          "type": "uint8"
        },
        {
          "name": "propertyId",
          "type": "uint256"
        },
        {
          "name": "applicant",
          "type": "address"
        },
        {
          "name": "requestId",
          "type": "uint256"
        },
        {
          "name": "date",
          "type": "uint256"
        },
        {
          "name": "stayLength",
          "type": "uint256"
        },
        {
          "name": "deposit",
          "type": "uint256"
        },
        {
          "name": "now",
          "type": "uint256"
        },
        {
          "name": "checked",
          "type": "bool"
        }
      ],
      "payable": false,
      "stateMutability": "view",
      "type": "function"
    },
    {
      "constant": true,
      "inputs": [
        {
          "name": "",
          "type": "uint256"
        }
      ],
      "name": "properties",
      "outputs": [
        {
          "name": "id",
          "type": "uint256"
        },
        {
          "name": "title",
          "type": "string"
        },
        {
          "name": "price",
          "type": "uint256"
        },
        {
          "name": "ownerAddress",
          "type": "address"
        },
        {
          "name": "ownerUportAddress",
          "type": "address"
        }
      ],
      "payable": false,
      "stateMutability": "view",
      "type": "function"
    },
    {
      "anonymous": false,
      "inputs": [
        {
          "indexed": true,
          "name": "_from",
          "type": "address"
        },
        {
          "indexed": false,
          "name": "_propertyId",
          "type": "uint256"
        },
        {
          "indexed": false,
          "name": "_date",
          "type": "uint256"
        },
        {
          "indexed": false,
          "name": "_dateLength",
          "type": "uint256"
        },
        {
          "indexed": false,
          "name": "_requestId",
          "type": "uint256"
        }
      ],
      "name": "ApplyRent",
      "type": "event"
    },
    {
      "anonymous": false,
      "inputs": [
        {
          "indexed": true,
          "name": "_from",
          "type": "address"
        },
        {
          "indexed": false,
          "name": "_propertyId",
          "type": "uint256"
        },
        {
          "indexed": false,
          "name": "_title",
          "type": "string"
        }
      ],
      "name": "AddProperty",
      "type": "event"
    },
    {
      "anonymous": false,
      "inputs": [
        {
          "indexed": true,
          "name": "_applicant",
          "type": "address"
        },
        {
          "indexed": true,
          "name": "_owner",
          "type": "address"
        },
        {
          "indexed": false,
          "name": "_result",
          "type": "bool"
        }
      ],
      "name": "Confirmation",
      "type": "event"
    },
    {
      "constant": false,
      "inputs": [
        {
          "name": "_title",
          "type": "string"
        },
        {
          "name": "_price",
          "type": "uint256"
        },
        {
          "name": "_uportAddress",
          "type": "address"
        }
      ],
      "name": "addProperty",
      "outputs": [],
      "payable": false,
      "stateMutability": "nonpayable",
      "type": "function"
    },
    {
      "constant": false,
      "inputs": [
        {
          "name": "_startDate",
          "type": "uint256"
        },
        {
          "name": "_stayLength",
          "type": "uint256"
        },
        {
          "name": "_propertyId",
          "type": "uint256"
        }
      ],
      "name": "applyRent",
      "outputs": [],
      "payable": true,
      "stateMutability": "payable",
      "type": "function"
    },
    {
      "constant": false,
      "inputs": [
        {
          "name": "_requestId",
          "type": "uint256"
        },
        {
          "name": "_isAccept",
          "type": "bool"
        }
      ],
      "name": "confirmApplication",
      "outputs": [],
      "payable": false,
      "stateMutability": "nonpayable",
      "type": "function"
    },
    {
      "constant": false,
      "inputs": [
        {
          "name": "_requestId",
          "type": "uint256"
        }
      ],
      "name": "refunds",
      "outputs": [],
      "payable": false,
      "stateMutability": "nonpayable",
      "type": "function"
    },
    {
      "constant": false,
      "inputs": [
        {
          "name": "_requestId",
          "type": "uint256"
        }
      ],
      "name": "checkRequest",
      "outputs": [],
      "payable": false,
      "stateMutability": "nonpayable",
      "type": "function"
    },
    {
      "constant": false,
      "inputs": [
        {
          "name": "_requestId",
          "type": "uint256"
        }
      ],
      "name": "withdrawCharge",
      "outputs": [],
      "payable": false,
      "stateMutability": "nonpayable",
      "type": "function"
    },
    {
      "constant": true,
      "inputs": [],
      "name": "userProperties",
      "outputs": [
        {
          "name": "",
          "type": "uint256[]"
        }
      ],
      "payable": false,
      "stateMutability": "view",
      "type": "function"
    },
    {
      "constant": true,
      "inputs": [],
      "name": "userRequest",
      "outputs": [
        {
          "name": "",
          "type": "uint256[]"
        }
      ],
      "payable": false,
      "stateMutability": "view",
      "type": "function"
    },
    {
      "constant": true,
      "inputs": [],
      "name": "propertyLength",
      "outputs": [
        {
          "name": "",
          "type": "uint256"
        }
      ],
      "payable": false,
      "stateMutability": "view",
      "type": "function"
    },
    {
      "constant": true,
      "inputs": [],
      "name": "requestsLength",
      "outputs": [
        {
          "name": "",
          "type": "uint256"
        }
      ],
      "payable": false,
      "stateMutability": "view",
      "type": "function"
    }
  ],
  "bytecode": "0x608060405234801561001057600080fd5b506113b0806100206000396000f3006080604052600436106100ba576000357c0100000000000000000000000000000000000000000000000000000000900463ffffffff16806334be9ffb146100bf57806339154c49146100f857806340c579981461016457806381d12c5814610191578063a2607a9914610248578063aa16c65c14610275578063b9154149146102a9578063d642e487146102d4578063e36bd0f314610339578063e730fcc314610366578063f7b10808146103d2578063ffbbfcb0146104ec575b600080fd5b3480156100cb57600080fd5b506100f660048036038101908080359060200190929190803515159060200190929190505050610517565b005b34801561010457600080fd5b5061010d6107b3565b6040518080602001828103825283818151815260200191508051906020019060200280838360005b83811015610150578082015181840152602081019050610135565b505050509050019250505060405180910390f35b34801561017057600080fd5b5061018f6004803603810190808035906020019092919050505061084b565b005b34801561019d57600080fd5b506101bc6004803603810190808035906020019092919050505061091e565b604051808a60028111156101cc57fe5b60ff1681526020018981526020018873ffffffffffffffffffffffffffffffffffffffff1673ffffffffffffffffffffffffffffffffffffffff16815260200187815260200186815260200185815260200184815260200183815260200182151515158152602001995050505050505050505060405180910390f35b34801561025457600080fd5b50610273600480360381019080803590602001909291905050506109b5565b005b6102a7600480360381019080803590602001909291908035906020019092919080359060200190929190505050610a50565b005b3480156102b557600080fd5b506102be610d69565b6040518082815260200191505060405180910390f35b3480156102e057600080fd5b5061033760048036038101908080359060200190820180359060200191909192939192939080359060200190929190803573ffffffffffffffffffffffffffffffffffffffff169060200190929190505050610d76565b005b34801561034557600080fd5b5061036460048036038101908080359060200190929190505050610fee565b005b34801561037257600080fd5b5061037b6110e8565b6040518080602001828103825283818151815260200191508051906020019060200280838360005b838110156103be5780820151818401526020810190506103a3565b505050509050019250505060405180910390f35b3480156103de57600080fd5b506103fd60048036038101908080359060200190929190505050611180565b60405180868152602001806020018581526020018473ffffffffffffffffffffffffffffffffffffffff1673ffffffffffffffffffffffffffffffffffffffff1681526020018373ffffffffffffffffffffffffffffffffffffffff1673ffffffffffffffffffffffffffffffffffffffff168152602001828103825286818151815260200191508051906020019080838360005b838110156104ad578082015181840152602081019050610492565b50505050905090810190601f1680156104da5780820380516001836020036101000a031916815260200191505b50965050505050505060405180910390f35b3480156104f857600080fd5b5061050161129d565b6040518082815260200191505060405180910390f35b60008060008060038681548110151561052c57fe5b906000526020600020906009020193506002846001015481548110151561054f57fe5b906000526020600020906006020192503373ffffffffffffffffffffffffffffffffffffffff168360030160009054906101000a900473ffffffffffffffffffffffffffffffffffffffff1673ffffffffffffffffffffffffffffffffffffffff161480156105e55750600060028111156105c657fe5b8460000160009054906101000a900460ff1660028111156105e357fe5b145b15156105f057600080fd5b84156106955760018460000160006101000a81548160ff0219169083600281111561061757fe5b0217905550600091505b8360050154821015610690576000808560010154815260200190815260200160002061065a8386600401546112aa90919063ffffffff16565b90806001815401808255809150509060018203906000526020600020016000909192909190915055508180600101925050610621565b61071e565b60028460000160006101000a81548160ff021916908360028111156106b657fe5b0217905550600090505b836005015481101561071d5760008360050160006106eb8488600401546112aa90919063ffffffff16565b815260200190815260200160002060006101000a81548160ff02191690831515021790555080806001019150506106c0565b5b3373ffffffffffffffffffffffffffffffffffffffff168460020160009054906101000a900473ffffffffffffffffffffffffffffffffffffffff1673ffffffffffffffffffffffffffffffffffffffff167f6fc8773d34ce082bf3b9fd10c376fae1448e6756e819779c99efb7806ea19dab87604051808215151515815260200191505060405180910390a3505050505050565b6060600160003373ffffffffffffffffffffffffffffffffffffffff1673ffffffffffffffffffffffffffffffffffffffff16815260200190815260200160002060010180548060200260200160405190810160405280929190818152602001828054801561084157602002820191906000526020600020905b81548152602001906001019080831161082d575b5050505050905090565b600060038281548110151561085c57fe5b906000526020600020906009020190508060020160009054906101000a900473ffffffffffffffffffffffffffffffffffffffff1673ffffffffffffffffffffffffffffffffffffffff163373ffffffffffffffffffffffffffffffffffffffff161480156108f25750600160028111156108d357fe5b8160000160009054906101000a900460ff1660028111156108f057fe5b145b15156108fd57600080fd5b60018160080160006101000a81548160ff0219169083151502179055505050565b60038181548110151561092d57fe5b90600052602060002090600902016000915090508060000160009054906101000a900460ff16908060010154908060020160009054906101000a900473ffffffffffffffffffffffffffffffffffffffff16908060030154908060040154908060050154908060060154908060070154908060080160009054906101000a900460ff16905089565b60006003828154811015156109c657fe5b906000526020600020906009020190508060080160009054906101000a900460ff16806109fb575042624f1a00826007015401105b15610a4c573373ffffffffffffffffffffffffffffffffffffffff166108fc82600601549081150290604051600060405180830381858888f19350505050158015610a4a573d6000803e3d6000fd5b505b5050565b600080600080600285815481101515610a6557fe5b90600052602060002090600602019350600160003373ffffffffffffffffffffffffffffffffffffffff1673ffffffffffffffffffffffffffffffffffffffff168152602001908152602001600020925060058611151515610ac657600080fd5b858460020154023410151515610adb57600080fd5b600091505b85821015610b505783600501600088815260200190815260200160002060009054906101000a900460ff1615610b1557600080fd5b600184600501600089815260200190815260200160002060006101000a81548160ff0219169083151502179055508180600101925050610ae0565b610cca600160036101206040519081016040528060006002811115610b7157fe5b81526020018981526020013373ffffffffffffffffffffffffffffffffffffffff16815260200160038054905081526020018b81526020018a8152602001348152602001428152602001600015158152509080600181540180825580915050906001820390600052602060002090600902016000909192909190915060008201518160000160006101000a81548160ff02191690836002811115610c1157fe5b02179055506020820151816001015560408201518160020160006101000a81548173ffffffffffffffffffffffffffffffffffffffff021916908373ffffffffffffffffffffffffffffffffffffffff160217905550606082015181600301556080820151816004015560a0820151816005015560c0820151816006015560e082015181600701556101008201518160080160006101000a81548160ff02191690831515021790555050506112c690919063ffffffff16565b9050826001018190806001815401808255809150509060018203906000526020600020016000909192909190915055503373ffffffffffffffffffffffffffffffffffffffff167f049dedc26e0d2f2168dd594e47e7291a3edb03336056863f905941cc7cf0c786868989856040518085815260200184815260200183815260200182815260200194505050505060405180910390a250505050505050565b6000600280549050905090565b600080610f056001600260a06040519081016040528060028054905081526020018a8a8080601f01602080910402602001604051908101604052809392919081815260200183838082843782019150505050505081526020018881526020013373ffffffffffffffffffffffffffffffffffffffff1681526020018773ffffffffffffffffffffffffffffffffffffffff1681525090806001815401808255809150509060018203906000526020600020906006020160009091929091909150600082015181600001556020820151816001019080519060200190610e5c9291906112df565b506040820151816002015560608201518160030160006101000a81548173ffffffffffffffffffffffffffffffffffffffff021916908373ffffffffffffffffffffffffffffffffffffffff16021790555060808201518160040160006101000a81548173ffffffffffffffffffffffffffffffffffffffff021916908373ffffffffffffffffffffffffffffffffffffffff16021790555050506112c690919063ffffffff16565b9150600160003373ffffffffffffffffffffffffffffffffffffffff1673ffffffffffffffffffffffffffffffffffffffff1681526020019081526020016000209050806000018290806001815401808255809150509060018203906000526020600020016000909192909190915055503373ffffffffffffffffffffffffffffffffffffffff167f6adbd4d9e481eb8b0568e0ce6e96590a9236f261f0411fe9c60426c89715131183888860405180848152602001806020018281038252848482818152602001925080828437820191505094505050505060405180910390a2505050505050565b60008060038381548110151561100057fe5b90600052602060002090600902019150426203f48083600701540110801561104f57506000600281111561103057fe5b8260000160009054906101000a900460ff16600281111561104d57fe5b145b80611080575060028081111561106157fe5b8260000160009054906101000a900460ff16600281111561107e57fe5b145b151561108b57600080fd5b81600601549050600082600601819055503373ffffffffffffffffffffffffffffffffffffffff166108fc829081150290604051600060405180830381858888f193505050501580156110e2573d6000803e3d6000fd5b50505050565b6060600160003373ffffffffffffffffffffffffffffffffffffffff1673ffffffffffffffffffffffffffffffffffffffff16815260200190815260200160002060000180548060200260200160405190810160405280929190818152602001828054801561117657602002820191906000526020600020905b815481526020019060010190808311611162575b5050505050905090565b60028181548110151561118f57fe5b9060005260206000209060060201600091509050806000015490806001018054600181600116156101000203166002900480601f0160208091040260200160405190810160405280929190818152602001828054600181600116156101000203166002900480156112415780601f1061121657610100808354040283529160200191611241565b820191906000526020600020905b81548152906001019060200180831161122457829003601f168201915b5050505050908060020154908060030160009054906101000a900473ffffffffffffffffffffffffffffffffffffffff16908060040160009054906101000a900473ffffffffffffffffffffffffffffffffffffffff16905085565b6000600380549050905090565b600081830190508281101515156112bd57fe5b80905092915050565b60008282111515156112d457fe5b818303905092915050565b828054600181600116156101000203166002900490600052602060002090601f016020900481019282601f1061132057805160ff191683800117855561134e565b8280016001018555821561134e579182015b8281111561134d578251825591602001919060010190611332565b5b50905061135b919061135f565b5090565b61138191905b8082111561137d576000816000905550600101611365565b5090565b905600a165627a7a723058205404ec286c6938ecb00c37686efe3067da5fe9ef7bc1ad9546abb04e393c07230029",
  "source": "pragma solidity ^0.4.23;\nimport \"../node_modules/zeppelin-solidity/contracts/math/SafeMath.sol\";\n\n\ncontract RealEstate{\n\n    using SafeMath for uint;\n\n    // real estate property\n    struct Property{\n        uint id;\n        string title;\n        uint price;\n        address ownerAddress;\n        address ownerUportAddress;\n        mapping(uint => bool) isNotEmpty;\n    }\n\n    mapping(uint => uint[]) propertyIdToReservedDate;\n\n    enum Status{Pending, Approved, Declined}\n\n    struct Request{\n        Status status;\n        uint propertyId;\n        address applicant;\n        uint requestId;\n        uint date;\n        uint stayLength;\n        uint deposit;\n        uint now;\n        bool checked;\n    }\n\n    struct User{\n        uint[] properties;\n        uint[] requests;\n    }\n\n    mapping(address => User) userInfo;\n    Property[] public properties;\n    Request[] public requests;\n\n    event ApplyRent(address indexed _from, uint _propertyId, uint _date, uint _dateLength, uint _requestId);\n    event AddProperty(address indexed _from, uint _propertyId, string _title);\n    event Confirmation(address indexed _applicant, address indexed _owner, bool _result);\n\n    //add user property\n    function addProperty(string _title, uint _price, address _uportAddress) external {\n        uint propertyId = properties.push(Property(properties.length, _title, _price, msg.sender, _uportAddress)).sub(1);\n        User storage user = userInfo[msg.sender];\n        user.properties.push(propertyId);\n        emit AddProperty(msg.sender, propertyId, _title);\n    }\n\n    //first apply\n    function applyRent(uint _startDate, uint _stayLength, uint _propertyId) external payable{\n        Property storage property = properties[_propertyId];\n        User storage user = userInfo[msg.sender];\n        require(_stayLength <= 5);\n        require(msg.value >= property.price * _stayLength);\n        for(uint i=0;i<_stayLength;i++){\n            if(property.isNotEmpty[_startDate]){\n               revert();\n            }else{\n                property.isNotEmpty[_startDate] = true;\n            }\n        }\n        uint requestId = requests.push(Request(\n                Status.Pending,_propertyId,msg.sender,requests.length,_startDate,_stayLength,msg.value,now,false)\n        ).sub(1);\n        user.requests.push(requestId);\n        emit ApplyRent(msg.sender,_propertyId, _startDate, _stayLength,requestId);\n    }\n\n    //confirm application\n    function confirmApplication(uint _requestId, bool _isAccept) external {\n        Request storage request = requests[_requestId];\n        Property storage property = properties[request.propertyId];\n        require(property.ownerAddress == msg.sender && request.status == Status.Pending);\n        if(_isAccept){\n            request.status = Status.Approved;\n            for(uint i=0;i<request.stayLength ;i++){\n                propertyIdToReservedDate[request.propertyId].push(request.date.add(i));\n            }\n        }else{\n            request.status = Status.Declined;\n            for(uint j=0;j<request.stayLength;j++){\n                property.isNotEmpty[request.date.add(j)] = false;\n            }\n\n        }\n        emit Confirmation(request.applicant,msg.sender,_isAccept);\n    }\n\n    function refunds(uint _requestId) external{\n        Request storage request = requests[_requestId];\n        require((request.now + 3 days < now && request.status == Status.Pending) || request.status == Status.Declined);\n        uint deposit = request.deposit;\n        request.deposit = 0;\n        msg.sender.transfer(deposit);\n    }\n\n    function checkRequest(uint _requestId) external{\n        Request storage request = requests[_requestId];\n        require(msg.sender == request.applicant && request.status == Status.Approved);\n        request.checked=true;\n    }\n\n    function withdrawCharge(uint _requestId) external{\n        Request storage request = requests[_requestId];\n        if(request.checked || (request.now + 60 days) < now){\n            msg.sender.transfer(request.deposit);\n        }\n    }\n\n    function userProperties() external view returns(uint[]){\n        return userInfo[msg.sender].properties;\n    }\n\n    function userRequest() external view returns(uint[]){\n        return userInfo[msg.sender].requests;\n    }\n\n    function propertyLength() external view returns(uint) {\n        return properties.length;\n    }\n\n    function requestsLength() external view returns(uint){\n        return requests.length;\n    }\n}",
  "sourcePath": "/Users/yamamotojirou/Desktop/truffle-uport/contracts/RealEstate.sol",
  "compiler": {
    "name": "solc",
    "version": "0.4.24+commit.e67f0147.Emscripten.clang"
  },
  "schemaVersion": "2.0.1",
  "updatedAt": "2018-07-22T01:19:16.398Z"
}